{
	"data": {
		"bytecode": {
			"linkReferences": {},
			"object": "608060405234801561000f575f80fd5b50610d3e8061001d5f395ff3fe608060405234801561000f575f80fd5b506004361061003f575f3560e01c806360e98e4014610043578063dace2e6a14610074578063e74c9e0914610090575b5f80fd5b61005d6004803603810190610058919061056b565b6100c0565b60405161006b9291906107a7565b60405180910390f35b61008e60048036038101906100899190610806565b6102ba565b005b6100aa60048036038101906100a5919061088e565b610337565b6040516100b79190610913565b60405180910390f35b6060805f80846040516100d39190610966565b908152602001604051809103902090505f818054905067ffffffffffffffff81111561010257610101610447565b5b60405190808252806020026020018201604052801561013557816020015b60608152602001906001900390816101205790505b5090505f828054905067ffffffffffffffff81111561015757610156610447565b5b6040519080825280602002602001820160405280156101855781602001602082028036833780820191505090505b5090505f5b83805490508110156102ab578381815481106101a9576101a861097c565b5b905f5260205f2090600202015f0180546101c2906109d6565b80601f01602080910402602001604051908101604052809291908181526020018280546101ee906109d6565b80156102395780601f1061021057610100808354040283529160200191610239565b820191905f5260205f20905b81548152906001019060200180831161021c57829003601f168201915b50505050508382815181106102515761025061097c565b5b602002602001018190525083818154811061026f5761026e61097c565b5b905f5260205f209060020201600101548282815181106102925761029161097c565b5b602002602001018181525050808060010191505061018a565b50818194509450505050915091565b5f816040516102c99190610966565b9081526020016040518091039020604051806040016040528085815260200184815250908060018154018082558091505060019003905f5260205f2090600202015f909190919091505f820151815f0190816103259190610ba3565b50602082015181600101555050505050565b5f805f836040516103489190610966565b908152602001604051809103902090505f5b818054905081101561041257846040516020016103779190610966565b604051602081830303815290604052805190602001208282815481106103a05761039f61097c565b5b905f5260205f2090600202015f016040516020016103be9190610cf2565b6040516020818303038152906040528051906020012003610405578181815481106103ec576103eb61097c565b5b905f5260205f2090600202016001015492505050610418565b808060010191505061035a565b505f9150505b92915050565b5f604051905090565b5f80fd5b5f80fd5b5f80fd5b5f80fd5b5f601f19601f8301169050919050565b7f4e487b71000000000000000000000000000000000000000000000000000000005f52604160045260245ffd5b61047d82610437565b810181811067ffffffffffffffff8211171561049c5761049b610447565b5b80604052505050565b5f6104ae61041e565b90506104ba8282610474565b919050565b5f67ffffffffffffffff8211156104d9576104d8610447565b5b6104e282610437565b9050602081019050919050565b828183375f83830152505050565b5f61050f61050a846104bf565b6104a5565b90508281526020810184848401111561052b5761052a610433565b5b6105368482856104ef565b509392505050565b5f82601f8301126105525761055161042f565b5b81356105628482602086016104fd565b91505092915050565b5f602082840312156105805761057f610427565b5b5f82013567ffffffffffffffff81111561059d5761059c61042b565b5b6105a98482850161053e565b91505092915050565b5f81519050919050565b5f82825260208201905092915050565b5f819050602082019050919050565b5f81519050919050565b5f82825260208201905092915050565b5f5b838110156106125780820151818401526020810190506105f7565b5f8484015250505050565b5f610627826105db565b61063181856105e5565b93506106418185602086016105f5565b61064a81610437565b840191505092915050565b5f610660838361061d565b905092915050565b5f602082019050919050565b5f61067e826105b2565b61068881856105bc565b93508360208202850161069a856105cc565b805f5b858110156106d557848403895281516106b68582610655565b94506106c183610668565b925060208a0199505060018101905061069d565b50829750879550505050505092915050565b5f81519050919050565b5f82825260208201905092915050565b5f819050602082019050919050565b5f819050919050565b61072281610710565b82525050565b5f6107338383610719565b60208301905092915050565b5f602082019050919050565b5f610755826106e7565b61075f81856106f1565b935061076a83610701565b805f5b8381101561079a5781516107818882610728565b975061078c8361073f565b92505060018101905061076d565b5085935050505092915050565b5f6040820190508181035f8301526107bf8185610674565b905081810360208301526107d3818461074b565b90509392505050565b6107e581610710565b81146107ef575f80fd5b50565b5f81359050610800816107dc565b92915050565b5f805f6060848603121561081d5761081c610427565b5b5f84013567ffffffffffffffff81111561083a5761083961042b565b5b6108468682870161053e565b9350506020610857868287016107f2565b925050604084013567ffffffffffffffff8111156108785761087761042b565b5b6108848682870161053e565b9150509250925092565b5f80604083850312156108a4576108a3610427565b5b5f83013567ffffffffffffffff8111156108c1576108c061042b565b5b6108cd8582860161053e565b925050602083013567ffffffffffffffff8111156108ee576108ed61042b565b5b6108fa8582860161053e565b9150509250929050565b61090d81610710565b82525050565b5f6020820190506109265f830184610904565b92915050565b5f81905092915050565b5f610940826105db565b61094a818561092c565b935061095a8185602086016105f5565b80840191505092915050565b5f6109718284610936565b915081905092915050565b7f4e487b71000000000000000000000000000000000000000000000000000000005f52603260045260245ffd5b7f4e487b71000000000000000000000000000000000000000000000000000000005f52602260045260245ffd5b5f60028204905060018216806109ed57607f821691505b602082108103610a00576109ff6109a9565b5b50919050565b5f819050815f5260205f209050919050565b5f6020601f8301049050919050565b5f82821b905092915050565b5f60088302610a627fffffffffffffffffffffffffffffffffffffffffffffffffffffffffffffffff82610a27565b610a6c8683610a27565b95508019841693508086168417925050509392505050565b5f819050919050565b5f610aa7610aa2610a9d84610710565b610a84565b610710565b9050919050565b5f819050919050565b610ac083610a8d565b610ad4610acc82610aae565b848454610a33565b825550505050565b5f90565b610ae8610adc565b610af3818484610ab7565b505050565b5b81811015610b1657610b0b5f82610ae0565b600181019050610af9565b5050565b601f821115610b5b57610b2c81610a06565b610b3584610a18565b81016020851015610b44578190505b610b58610b5085610a18565b830182610af8565b50505b505050565b5f82821c905092915050565b5f610b7b5f1984600802610b60565b1980831691505092915050565b5f610b938383610b6c565b9150826002028217905092915050565b610bac826105db565b67ffffffffffffffff811115610bc557610bc4610447565b5b610bcf82546109d6565b610bda828285610b1a565b5f60209050601f831160018114610c0b575f8415610bf9578287015190505b610c038582610b88565b865550610c6a565b601f198416610c1986610a06565b5f5b82811015610c4057848901518255600182019150602085019450602081019050610c1b565b86831015610c5d5784890151610c59601f891682610b6c565b8355505b6001600288020188555050505b505050505050565b5f8154610c7e816109d6565b610c88818661092c565b9450600182165f8114610ca25760018114610cb757610ce9565b60ff1983168652811515820286019350610ce9565b610cc085610a06565b5f5b83811015610ce157815481890152600182019150602081019050610cc2565b838801955050505b50505092915050565b5f610cfd8284610c72565b91508190509291505056fea264697066735822122038952f9b2ed80112d85288bc535f7344dcdd1d680df1258b640bef902cb9f8e264736f6c63430008160033",
			"opcodes": "PUSH1 0x80 PUSH1 0x40 MSTORE CALLVALUE DUP1 ISZERO PUSH2 0xF JUMPI PUSH0 DUP1 REVERT JUMPDEST POP PUSH2 0xD3E DUP1 PUSH2 0x1D PUSH0 CODECOPY PUSH0 RETURN INVALID PUSH1 0x80 PUSH1 0x40 MSTORE CALLVALUE DUP1 ISZERO PUSH2 0xF JUMPI PUSH0 DUP1 REVERT JUMPDEST POP PUSH1 0x4 CALLDATASIZE LT PUSH2 0x3F JUMPI PUSH0 CALLDATALOAD PUSH1 0xE0 SHR DUP1 PUSH4 0x60E98E40 EQ PUSH2 0x43 JUMPI DUP1 PUSH4 0xDACE2E6A EQ PUSH2 0x74 JUMPI DUP1 PUSH4 0xE74C9E09 EQ PUSH2 0x90 JUMPI JUMPDEST PUSH0 DUP1 REVERT JUMPDEST PUSH2 0x5D PUSH1 0x4 DUP1 CALLDATASIZE SUB DUP2 ADD SWAP1 PUSH2 0x58 SWAP2 SWAP1 PUSH2 0x56B JUMP JUMPDEST PUSH2 0xC0 JUMP JUMPDEST PUSH1 0x40 MLOAD PUSH2 0x6B SWAP3 SWAP2 SWAP1 PUSH2 0x7A7 JUMP JUMPDEST PUSH1 0x40 MLOAD DUP1 SWAP2 SUB SWAP1 RETURN JUMPDEST PUSH2 0x8E PUSH1 0x4 DUP1 CALLDATASIZE SUB DUP2 ADD SWAP1 PUSH2 0x89 SWAP2 SWAP1 PUSH2 0x806 JUMP JUMPDEST PUSH2 0x2BA JUMP JUMPDEST STOP JUMPDEST PUSH2 0xAA PUSH1 0x4 DUP1 CALLDATASIZE SUB DUP2 ADD SWAP1 PUSH2 0xA5 SWAP2 SWAP1 PUSH2 0x88E JUMP JUMPDEST PUSH2 0x337 JUMP JUMPDEST PUSH1 0x40 MLOAD PUSH2 0xB7 SWAP2 SWAP1 PUSH2 0x913 JUMP JUMPDEST PUSH1 0x40 MLOAD DUP1 SWAP2 SUB SWAP1 RETURN JUMPDEST PUSH1 0x60 DUP1 PUSH0 DUP1 DUP5 PUSH1 0x40 MLOAD PUSH2 0xD3 SWAP2 SWAP1 PUSH2 0x966 JUMP JUMPDEST SWAP1 DUP2 MSTORE PUSH1 0x20 ADD PUSH1 0x40 MLOAD DUP1 SWAP2 SUB SWAP1 KECCAK256 SWAP1 POP PUSH0 DUP2 DUP1 SLOAD SWAP1 POP PUSH8 0xFFFFFFFFFFFFFFFF DUP2 GT ISZERO PUSH2 0x102 JUMPI PUSH2 0x101 PUSH2 0x447 JUMP JUMPDEST JUMPDEST PUSH1 0x40 MLOAD SWAP1 DUP1 DUP3 MSTORE DUP1 PUSH1 0x20 MUL PUSH1 0x20 ADD DUP3 ADD PUSH1 0x40 MSTORE DUP1 ISZERO PUSH2 0x135 JUMPI DUP2 PUSH1 0x20 ADD JUMPDEST PUSH1 0x60 DUP2 MSTORE PUSH1 0x20 ADD SWAP1 PUSH1 0x1 SWAP1 SUB SWAP1 DUP2 PUSH2 0x120 JUMPI SWAP1 POP JUMPDEST POP SWAP1 POP PUSH0 DUP3 DUP1 SLOAD SWAP1 POP PUSH8 0xFFFFFFFFFFFFFFFF DUP2 GT ISZERO PUSH2 0x157 JUMPI PUSH2 0x156 PUSH2 0x447 JUMP JUMPDEST JUMPDEST PUSH1 0x40 MLOAD SWAP1 DUP1 DUP3 MSTORE DUP1 PUSH1 0x20 MUL PUSH1 0x20 ADD DUP3 ADD PUSH1 0x40 MSTORE DUP1 ISZERO PUSH2 0x185 JUMPI DUP2 PUSH1 0x20 ADD PUSH1 0x20 DUP3 MUL DUP1 CALLDATASIZE DUP4 CALLDATACOPY DUP1 DUP3 ADD SWAP2 POP POP SWAP1 POP JUMPDEST POP SWAP1 POP PUSH0 JUMPDEST DUP4 DUP1 SLOAD SWAP1 POP DUP2 LT ISZERO PUSH2 0x2AB JUMPI DUP4 DUP2 DUP2 SLOAD DUP2 LT PUSH2 0x1A9 JUMPI PUSH2 0x1A8 PUSH2 0x97C JUMP JUMPDEST JUMPDEST SWAP1 PUSH0 MSTORE PUSH1 0x20 PUSH0 KECCAK256 SWAP1 PUSH1 0x2 MUL ADD PUSH0 ADD DUP1 SLOAD PUSH2 0x1C2 SWAP1 PUSH2 0x9D6 JUMP JUMPDEST DUP1 PUSH1 0x1F ADD PUSH1 0x20 DUP1 SWAP2 DIV MUL PUSH1 0x20 ADD PUSH1 0x40 MLOAD SWAP1 DUP2 ADD PUSH1 0x40 MSTORE DUP1 SWAP3 SWAP2 SWAP1 DUP2 DUP2 MSTORE PUSH1 0x20 ADD DUP3 DUP1 SLOAD PUSH2 0x1EE SWAP1 PUSH2 0x9D6 JUMP JUMPDEST DUP1 ISZERO PUSH2 0x239 JUMPI DUP1 PUSH1 0x1F LT PUSH2 0x210 JUMPI PUSH2 0x100 DUP1 DUP4 SLOAD DIV MUL DUP4 MSTORE SWAP2 PUSH1 0x20 ADD SWAP2 PUSH2 0x239 JUMP JUMPDEST DUP3 ADD SWAP2 SWAP1 PUSH0 MSTORE PUSH1 0x20 PUSH0 KECCAK256 SWAP1 JUMPDEST DUP2 SLOAD DUP2 MSTORE SWAP1 PUSH1 0x1 ADD SWAP1 PUSH1 0x20 ADD DUP1 DUP4 GT PUSH2 0x21C JUMPI DUP3 SWAP1 SUB PUSH1 0x1F AND DUP3 ADD SWAP2 JUMPDEST POP POP POP POP POP DUP4 DUP3 DUP2 MLOAD DUP2 LT PUSH2 0x251 JUMPI PUSH2 0x250 PUSH2 0x97C JUMP JUMPDEST JUMPDEST PUSH1 0x20 MUL PUSH1 0x20 ADD ADD DUP2 SWAP1 MSTORE POP DUP4 DUP2 DUP2 SLOAD DUP2 LT PUSH2 0x26F JUMPI PUSH2 0x26E PUSH2 0x97C JUMP JUMPDEST JUMPDEST SWAP1 PUSH0 MSTORE PUSH1 0x20 PUSH0 KECCAK256 SWAP1 PUSH1 0x2 MUL ADD PUSH1 0x1 ADD SLOAD DUP3 DUP3 DUP2 MLOAD DUP2 LT PUSH2 0x292 JUMPI PUSH2 0x291 PUSH2 0x97C JUMP JUMPDEST JUMPDEST PUSH1 0x20 MUL PUSH1 0x20 ADD ADD DUP2 DUP2 MSTORE POP POP DUP1 DUP1 PUSH1 0x1 ADD SWAP2 POP POP PUSH2 0x18A JUMP JUMPDEST POP DUP2 DUP2 SWAP5 POP SWAP5 POP POP POP POP SWAP2 POP SWAP2 JUMP JUMPDEST PUSH0 DUP2 PUSH1 0x40 MLOAD PUSH2 0x2C9 SWAP2 SWAP1 PUSH2 0x966 JUMP JUMPDEST SWAP1 DUP2 MSTORE PUSH1 0x20 ADD PUSH1 0x40 MLOAD DUP1 SWAP2 SUB SWAP1 KECCAK256 PUSH1 0x40 MLOAD DUP1 PUSH1 0x40 ADD PUSH1 0x40 MSTORE DUP1 DUP6 DUP2 MSTORE PUSH1 0x20 ADD DUP5 DUP2 MSTORE POP SWAP1 DUP1 PUSH1 0x1 DUP2 SLOAD ADD DUP1 DUP3 SSTORE DUP1 SWAP2 POP POP PUSH1 0x1 SWAP1 SUB SWAP1 PUSH0 MSTORE PUSH1 0x20 PUSH0 KECCAK256 SWAP1 PUSH1 0x2 MUL ADD PUSH0 SWAP1 SWAP2 SWAP1 SWAP2 SWAP1 SWAP2 POP PUSH0 DUP3 ADD MLOAD DUP2 PUSH0 ADD SWAP1 DUP2 PUSH2 0x325 SWAP2 SWAP1 PUSH2 0xBA3 JUMP JUMPDEST POP PUSH1 0x20 DUP3 ADD MLOAD DUP2 PUSH1 0x1 ADD SSTORE POP POP POP POP POP JUMP JUMPDEST PUSH0 DUP1 PUSH0 DUP4 PUSH1 0x40 MLOAD PUSH2 0x348 SWAP2 SWAP1 PUSH2 0x966 JUMP JUMPDEST SWAP1 DUP2 MSTORE PUSH1 0x20 ADD PUSH1 0x40 MLOAD DUP1 SWAP2 SUB SWAP1 KECCAK256 SWAP1 POP PUSH0 JUMPDEST DUP2 DUP1 SLOAD SWAP1 POP DUP2 LT ISZERO PUSH2 0x412 JUMPI DUP5 PUSH1 0x40 MLOAD PUSH1 0x20 ADD PUSH2 0x377 SWAP2 SWAP1 PUSH2 0x966 JUMP JUMPDEST PUSH1 0x40 MLOAD PUSH1 0x20 DUP2 DUP4 SUB SUB DUP2 MSTORE SWAP1 PUSH1 0x40 MSTORE DUP1 MLOAD SWAP1 PUSH1 0x20 ADD KECCAK256 DUP3 DUP3 DUP2 SLOAD DUP2 LT PUSH2 0x3A0 JUMPI PUSH2 0x39F PUSH2 0x97C JUMP JUMPDEST JUMPDEST SWAP1 PUSH0 MSTORE PUSH1 0x20 PUSH0 KECCAK256 SWAP1 PUSH1 0x2 MUL ADD PUSH0 ADD PUSH1 0x40 MLOAD PUSH1 0x20 ADD PUSH2 0x3BE SWAP2 SWAP1 PUSH2 0xCF2 JUMP JUMPDEST PUSH1 0x40 MLOAD PUSH1 0x20 DUP2 DUP4 SUB SUB DUP2 MSTORE SWAP1 PUSH1 0x40 MSTORE DUP1 MLOAD SWAP1 PUSH1 0x20 ADD KECCAK256 SUB PUSH2 0x405 JUMPI DUP2 DUP2 DUP2 SLOAD DUP2 LT PUSH2 0x3EC JUMPI PUSH2 0x3EB PUSH2 0x97C JUMP JUMPDEST JUMPDEST SWAP1 PUSH0 MSTORE PUSH1 0x20 PUSH0 KECCAK256 SWAP1 PUSH1 0x2 MUL ADD PUSH1 0x1 ADD SLOAD SWAP3 POP POP POP PUSH2 0x418 JUMP JUMPDEST DUP1 DUP1 PUSH1 0x1 ADD SWAP2 POP POP PUSH2 0x35A JUMP JUMPDEST POP PUSH0 SWAP2 POP POP JUMPDEST SWAP3 SWAP2 POP POP JUMP JUMPDEST PUSH0 PUSH1 0x40 MLOAD SWAP1 POP SWAP1 JUMP JUMPDEST PUSH0 DUP1 REVERT JUMPDEST PUSH0 DUP1 REVERT JUMPDEST PUSH0 DUP1 REVERT JUMPDEST PUSH0 DUP1 REVERT JUMPDEST PUSH0 PUSH1 0x1F NOT PUSH1 0x1F DUP4 ADD AND SWAP1 POP SWAP2 SWAP1 POP JUMP JUMPDEST PUSH32 0x4E487B7100000000000000000000000000000000000000000000000000000000 PUSH0 MSTORE PUSH1 0x41 PUSH1 0x4 MSTORE PUSH1 0x24 PUSH0 REVERT JUMPDEST PUSH2 0x47D DUP3 PUSH2 0x437 JUMP JUMPDEST DUP2 ADD DUP2 DUP2 LT PUSH8 0xFFFFFFFFFFFFFFFF DUP3 GT OR ISZERO PUSH2 0x49C JUMPI PUSH2 0x49B PUSH2 0x447 JUMP JUMPDEST JUMPDEST DUP1 PUSH1 0x40 MSTORE POP POP POP JUMP JUMPDEST PUSH0 PUSH2 0x4AE PUSH2 0x41E JUMP JUMPDEST SWAP1 POP PUSH2 0x4BA DUP3 DUP3 PUSH2 0x474 JUMP JUMPDEST SWAP2 SWAP1 POP JUMP JUMPDEST PUSH0 PUSH8 0xFFFFFFFFFFFFFFFF DUP3 GT ISZERO PUSH2 0x4D9 JUMPI PUSH2 0x4D8 PUSH2 0x447 JUMP JUMPDEST JUMPDEST PUSH2 0x4E2 DUP3 PUSH2 0x437 JUMP JUMPDEST SWAP1 POP PUSH1 0x20 DUP2 ADD SWAP1 POP SWAP2 SWAP1 POP JUMP JUMPDEST DUP3 DUP2 DUP4 CALLDATACOPY PUSH0 DUP4 DUP4 ADD MSTORE POP POP POP JUMP JUMPDEST PUSH0 PUSH2 0x50F PUSH2 0x50A DUP5 PUSH2 0x4BF JUMP JUMPDEST PUSH2 0x4A5 JUMP JUMPDEST SWAP1 POP DUP3 DUP2 MSTORE PUSH1 0x20 DUP2 ADD DUP5 DUP5 DUP5 ADD GT ISZERO PUSH2 0x52B JUMPI PUSH2 0x52A PUSH2 0x433 JUMP JUMPDEST JUMPDEST PUSH2 0x536 DUP5 DUP3 DUP6 PUSH2 0x4EF JUMP JUMPDEST POP SWAP4 SWAP3 POP POP POP JUMP JUMPDEST PUSH0 DUP3 PUSH1 0x1F DUP4 ADD SLT PUSH2 0x552 JUMPI PUSH2 0x551 PUSH2 0x42F JUMP JUMPDEST JUMPDEST DUP2 CALLDATALOAD PUSH2 0x562 DUP5 DUP3 PUSH1 0x20 DUP7 ADD PUSH2 0x4FD JUMP JUMPDEST SWAP2 POP POP SWAP3 SWAP2 POP POP JUMP JUMPDEST PUSH0 PUSH1 0x20 DUP3 DUP5 SUB SLT ISZERO PUSH2 0x580 JUMPI PUSH2 0x57F PUSH2 0x427 JUMP JUMPDEST JUMPDEST PUSH0 DUP3 ADD CALLDATALOAD PUSH8 0xFFFFFFFFFFFFFFFF DUP2 GT ISZERO PUSH2 0x59D JUMPI PUSH2 0x59C PUSH2 0x42B JUMP JUMPDEST JUMPDEST PUSH2 0x5A9 DUP5 DUP3 DUP6 ADD PUSH2 0x53E JUMP JUMPDEST SWAP2 POP POP SWAP3 SWAP2 POP POP JUMP JUMPDEST PUSH0 DUP2 MLOAD SWAP1 POP SWAP2 SWAP1 POP JUMP JUMPDEST PUSH0 DUP3 DUP3 MSTORE PUSH1 0x20 DUP3 ADD SWAP1 POP SWAP3 SWAP2 POP POP JUMP JUMPDEST PUSH0 DUP2 SWAP1 POP PUSH1 0x20 DUP3 ADD SWAP1 POP SWAP2 SWAP1 POP JUMP JUMPDEST PUSH0 DUP2 MLOAD SWAP1 POP SWAP2 SWAP1 POP JUMP JUMPDEST PUSH0 DUP3 DUP3 MSTORE PUSH1 0x20 DUP3 ADD SWAP1 POP SWAP3 SWAP2 POP POP JUMP JUMPDEST PUSH0 JUMPDEST DUP4 DUP2 LT ISZERO PUSH2 0x612 JUMPI DUP1 DUP3 ADD MLOAD DUP2 DUP5 ADD MSTORE PUSH1 0x20 DUP2 ADD SWAP1 POP PUSH2 0x5F7 JUMP JUMPDEST PUSH0 DUP5 DUP5 ADD MSTORE POP POP POP POP JUMP JUMPDEST PUSH0 PUSH2 0x627 DUP3 PUSH2 0x5DB JUMP JUMPDEST PUSH2 0x631 DUP2 DUP6 PUSH2 0x5E5 JUMP JUMPDEST SWAP4 POP PUSH2 0x641 DUP2 DUP6 PUSH1 0x20 DUP7 ADD PUSH2 0x5F5 JUMP JUMPDEST PUSH2 0x64A DUP2 PUSH2 0x437 JUMP JUMPDEST DUP5 ADD SWAP2 POP POP SWAP3 SWAP2 POP POP JUMP JUMPDEST PUSH0 PUSH2 0x660 DUP4 DUP4 PUSH2 0x61D JUMP JUMPDEST SWAP1 POP SWAP3 SWAP2 POP POP JUMP JUMPDEST PUSH0 PUSH1 0x20 DUP3 ADD SWAP1 POP SWAP2 SWAP1 POP JUMP JUMPDEST PUSH0 PUSH2 0x67E DUP3 PUSH2 0x5B2 JUMP JUMPDEST PUSH2 0x688 DUP2 DUP6 PUSH2 0x5BC JUMP JUMPDEST SWAP4 POP DUP4 PUSH1 0x20 DUP3 MUL DUP6 ADD PUSH2 0x69A DUP6 PUSH2 0x5CC JUMP JUMPDEST DUP1 PUSH0 JUMPDEST DUP6 DUP2 LT ISZERO PUSH2 0x6D5 JUMPI DUP5 DUP5 SUB DUP10 MSTORE DUP2 MLOAD PUSH2 0x6B6 DUP6 DUP3 PUSH2 0x655 JUMP JUMPDEST SWAP5 POP PUSH2 0x6C1 DUP4 PUSH2 0x668 JUMP JUMPDEST SWAP3 POP PUSH1 0x20 DUP11 ADD SWAP10 POP POP PUSH1 0x1 DUP2 ADD SWAP1 POP PUSH2 0x69D JUMP JUMPDEST POP DUP3 SWAP8 POP DUP8 SWAP6 POP POP POP POP POP POP SWAP3 SWAP2 POP POP JUMP JUMPDEST PUSH0 DUP2 MLOAD SWAP1 POP SWAP2 SWAP1 POP JUMP JUMPDEST PUSH0 DUP3 DUP3 MSTORE PUSH1 0x20 DUP3 ADD SWAP1 POP SWAP3 SWAP2 POP POP JUMP JUMPDEST PUSH0 DUP2 SWAP1 POP PUSH1 0x20 DUP3 ADD SWAP1 POP SWAP2 SWAP1 POP JUMP JUMPDEST PUSH0 DUP2 SWAP1 POP SWAP2 SWAP1 POP JUMP JUMPDEST PUSH2 0x722 DUP2 PUSH2 0x710 JUMP JUMPDEST DUP3 MSTORE POP POP JUMP JUMPDEST PUSH0 PUSH2 0x733 DUP4 DUP4 PUSH2 0x719 JUMP JUMPDEST PUSH1 0x20 DUP4 ADD SWAP1 POP SWAP3 SWAP2 POP POP JUMP JUMPDEST PUSH0 PUSH1 0x20 DUP3 ADD SWAP1 POP SWAP2 SWAP1 POP JUMP JUMPDEST PUSH0 PUSH2 0x755 DUP3 PUSH2 0x6E7 JUMP JUMPDEST PUSH2 0x75F DUP2 DUP6 PUSH2 0x6F1 JUMP JUMPDEST SWAP4 POP PUSH2 0x76A DUP4 PUSH2 0x701 JUMP JUMPDEST DUP1 PUSH0 JUMPDEST DUP4 DUP2 LT ISZERO PUSH2 0x79A JUMPI DUP2 MLOAD PUSH2 0x781 DUP9 DUP3 PUSH2 0x728 JUMP JUMPDEST SWAP8 POP PUSH2 0x78C DUP4 PUSH2 0x73F JUMP JUMPDEST SWAP3 POP POP PUSH1 0x1 DUP2 ADD SWAP1 POP PUSH2 0x76D JUMP JUMPDEST POP DUP6 SWAP4 POP POP POP POP SWAP3 SWAP2 POP POP JUMP JUMPDEST PUSH0 PUSH1 0x40 DUP3 ADD SWAP1 POP DUP2 DUP2 SUB PUSH0 DUP4 ADD MSTORE PUSH2 0x7BF DUP2 DUP6 PUSH2 0x674 JUMP JUMPDEST SWAP1 POP DUP2 DUP2 SUB PUSH1 0x20 DUP4 ADD MSTORE PUSH2 0x7D3 DUP2 DUP5 PUSH2 0x74B JUMP JUMPDEST SWAP1 POP SWAP4 SWAP3 POP POP POP JUMP JUMPDEST PUSH2 0x7E5 DUP2 PUSH2 0x710 JUMP JUMPDEST DUP2 EQ PUSH2 0x7EF JUMPI PUSH0 DUP1 REVERT JUMPDEST POP JUMP JUMPDEST PUSH0 DUP2 CALLDATALOAD SWAP1 POP PUSH2 0x800 DUP2 PUSH2 0x7DC JUMP JUMPDEST SWAP3 SWAP2 POP POP JUMP JUMPDEST PUSH0 DUP1 PUSH0 PUSH1 0x60 DUP5 DUP7 SUB SLT ISZERO PUSH2 0x81D JUMPI PUSH2 0x81C PUSH2 0x427 JUMP JUMPDEST JUMPDEST PUSH0 DUP5 ADD CALLDATALOAD PUSH8 0xFFFFFFFFFFFFFFFF DUP2 GT ISZERO PUSH2 0x83A JUMPI PUSH2 0x839 PUSH2 0x42B JUMP JUMPDEST JUMPDEST PUSH2 0x846 DUP7 DUP3 DUP8 ADD PUSH2 0x53E JUMP JUMPDEST SWAP4 POP POP PUSH1 0x20 PUSH2 0x857 DUP7 DUP3 DUP8 ADD PUSH2 0x7F2 JUMP JUMPDEST SWAP3 POP POP PUSH1 0x40 DUP5 ADD CALLDATALOAD PUSH8 0xFFFFFFFFFFFFFFFF DUP2 GT ISZERO PUSH2 0x878 JUMPI PUSH2 0x877 PUSH2 0x42B JUMP JUMPDEST JUMPDEST PUSH2 0x884 DUP7 DUP3 DUP8 ADD PUSH2 0x53E JUMP JUMPDEST SWAP2 POP POP SWAP3 POP SWAP3 POP SWAP3 JUMP JUMPDEST PUSH0 DUP1 PUSH1 0x40 DUP4 DUP6 SUB SLT ISZERO PUSH2 0x8A4 JUMPI PUSH2 0x8A3 PUSH2 0x427 JUMP JUMPDEST JUMPDEST PUSH0 DUP4 ADD CALLDATALOAD PUSH8 0xFFFFFFFFFFFFFFFF DUP2 GT ISZERO PUSH2 0x8C1 JUMPI PUSH2 0x8C0 PUSH2 0x42B JUMP JUMPDEST JUMPDEST PUSH2 0x8CD DUP6 DUP3 DUP7 ADD PUSH2 0x53E JUMP JUMPDEST SWAP3 POP POP PUSH1 0x20 DUP4 ADD CALLDATALOAD PUSH8 0xFFFFFFFFFFFFFFFF DUP2 GT ISZERO PUSH2 0x8EE JUMPI PUSH2 0x8ED PUSH2 0x42B JUMP JUMPDEST JUMPDEST PUSH2 0x8FA DUP6 DUP3 DUP7 ADD PUSH2 0x53E JUMP JUMPDEST SWAP2 POP POP SWAP3 POP SWAP3 SWAP1 POP JUMP JUMPDEST PUSH2 0x90D DUP2 PUSH2 0x710 JUMP JUMPDEST DUP3 MSTORE POP POP JUMP JUMPDEST PUSH0 PUSH1 0x20 DUP3 ADD SWAP1 POP PUSH2 0x926 PUSH0 DUP4 ADD DUP5 PUSH2 0x904 JUMP JUMPDEST SWAP3 SWAP2 POP POP JUMP JUMPDEST PUSH0 DUP2 SWAP1 POP SWAP3 SWAP2 POP POP JUMP JUMPDEST PUSH0 PUSH2 0x940 DUP3 PUSH2 0x5DB JUMP JUMPDEST PUSH2 0x94A DUP2 DUP6 PUSH2 0x92C JUMP JUMPDEST SWAP4 POP PUSH2 0x95A DUP2 DUP6 PUSH1 0x20 DUP7 ADD PUSH2 0x5F5 JUMP JUMPDEST DUP1 DUP5 ADD SWAP2 POP POP SWAP3 SWAP2 POP POP JUMP JUMPDEST PUSH0 PUSH2 0x971 DUP3 DUP5 PUSH2 0x936 JUMP JUMPDEST SWAP2 POP DUP2 SWAP1 POP SWAP3 SWAP2 POP POP JUMP JUMPDEST PUSH32 0x4E487B7100000000000000000000000000000000000000000000000000000000 PUSH0 MSTORE PUSH1 0x32 PUSH1 0x4 MSTORE PUSH1 0x24 PUSH0 REVERT JUMPDEST PUSH32 0x4E487B7100000000000000000000000000000000000000000000000000000000 PUSH0 MSTORE PUSH1 0x22 PUSH1 0x4 MSTORE PUSH1 0x24 PUSH0 REVERT JUMPDEST PUSH0 PUSH1 0x2 DUP3 DIV SWAP1 POP PUSH1 0x1 DUP3 AND DUP1 PUSH2 0x9ED JUMPI PUSH1 0x7F DUP3 AND SWAP2 POP JUMPDEST PUSH1 0x20 DUP3 LT DUP2 SUB PUSH2 0xA00 JUMPI PUSH2 0x9FF PUSH2 0x9A9 JUMP JUMPDEST JUMPDEST POP SWAP2 SWAP1 POP JUMP JUMPDEST PUSH0 DUP2 SWAP1 POP DUP2 PUSH0 MSTORE PUSH1 0x20 PUSH0 KECCAK256 SWAP1 POP SWAP2 SWAP1 POP JUMP JUMPDEST PUSH0 PUSH1 0x20 PUSH1 0x1F DUP4 ADD DIV SWAP1 POP SWAP2 SWAP1 POP JUMP JUMPDEST PUSH0 DUP3 DUP3 SHL SWAP1 POP SWAP3 SWAP2 POP POP JUMP JUMPDEST PUSH0 PUSH1 0x8 DUP4 MUL PUSH2 0xA62 PUSH32 0xFFFFFFFFFFFFFFFFFFFFFFFFFFFFFFFFFFFFFFFFFFFFFFFFFFFFFFFFFFFFFFFF DUP3 PUSH2 0xA27 JUMP JUMPDEST PUSH2 0xA6C DUP7 DUP4 PUSH2 0xA27 JUMP JUMPDEST SWAP6 POP DUP1 NOT DUP5 AND SWAP4 POP DUP1 DUP7 AND DUP5 OR SWAP3 POP POP POP SWAP4 SWAP3 POP POP POP JUMP JUMPDEST PUSH0 DUP2 SWAP1 POP SWAP2 SWAP1 POP JUMP JUMPDEST PUSH0 PUSH2 0xAA7 PUSH2 0xAA2 PUSH2 0xA9D DUP5 PUSH2 0x710 JUMP JUMPDEST PUSH2 0xA84 JUMP JUMPDEST PUSH2 0x710 JUMP JUMPDEST SWAP1 POP SWAP2 SWAP1 POP JUMP JUMPDEST PUSH0 DUP2 SWAP1 POP SWAP2 SWAP1 POP JUMP JUMPDEST PUSH2 0xAC0 DUP4 PUSH2 0xA8D JUMP JUMPDEST PUSH2 0xAD4 PUSH2 0xACC DUP3 PUSH2 0xAAE JUMP JUMPDEST DUP5 DUP5 SLOAD PUSH2 0xA33 JUMP JUMPDEST DUP3 SSTORE POP POP POP POP JUMP JUMPDEST PUSH0 SWAP1 JUMP JUMPDEST PUSH2 0xAE8 PUSH2 0xADC JUMP JUMPDEST PUSH2 0xAF3 DUP2 DUP5 DUP5 PUSH2 0xAB7 JUMP JUMPDEST POP POP POP JUMP JUMPDEST JUMPDEST DUP2 DUP2 LT ISZERO PUSH2 0xB16 JUMPI PUSH2 0xB0B PUSH0 DUP3 PUSH2 0xAE0 JUMP JUMPDEST PUSH1 0x1 DUP2 ADD SWAP1 POP PUSH2 0xAF9 JUMP JUMPDEST POP POP JUMP JUMPDEST PUSH1 0x1F DUP3 GT ISZERO PUSH2 0xB5B JUMPI PUSH2 0xB2C DUP2 PUSH2 0xA06 JUMP JUMPDEST PUSH2 0xB35 DUP5 PUSH2 0xA18 JUMP JUMPDEST DUP2 ADD PUSH1 0x20 DUP6 LT ISZERO PUSH2 0xB44 JUMPI DUP2 SWAP1 POP JUMPDEST PUSH2 0xB58 PUSH2 0xB50 DUP6 PUSH2 0xA18 JUMP JUMPDEST DUP4 ADD DUP3 PUSH2 0xAF8 JUMP JUMPDEST POP POP JUMPDEST POP POP POP JUMP JUMPDEST PUSH0 DUP3 DUP3 SHR SWAP1 POP SWAP3 SWAP2 POP POP JUMP JUMPDEST PUSH0 PUSH2 0xB7B PUSH0 NOT DUP5 PUSH1 0x8 MUL PUSH2 0xB60 JUMP JUMPDEST NOT DUP1 DUP4 AND SWAP2 POP POP SWAP3 SWAP2 POP POP JUMP JUMPDEST PUSH0 PUSH2 0xB93 DUP4 DUP4 PUSH2 0xB6C JUMP JUMPDEST SWAP2 POP DUP3 PUSH1 0x2 MUL DUP3 OR SWAP1 POP SWAP3 SWAP2 POP POP JUMP JUMPDEST PUSH2 0xBAC DUP3 PUSH2 0x5DB JUMP JUMPDEST PUSH8 0xFFFFFFFFFFFFFFFF DUP2 GT ISZERO PUSH2 0xBC5 JUMPI PUSH2 0xBC4 PUSH2 0x447 JUMP JUMPDEST JUMPDEST PUSH2 0xBCF DUP3 SLOAD PUSH2 0x9D6 JUMP JUMPDEST PUSH2 0xBDA DUP3 DUP3 DUP6 PUSH2 0xB1A JUMP JUMPDEST PUSH0 PUSH1 0x20 SWAP1 POP PUSH1 0x1F DUP4 GT PUSH1 0x1 DUP2 EQ PUSH2 0xC0B JUMPI PUSH0 DUP5 ISZERO PUSH2 0xBF9 JUMPI DUP3 DUP8 ADD MLOAD SWAP1 POP JUMPDEST PUSH2 0xC03 DUP6 DUP3 PUSH2 0xB88 JUMP JUMPDEST DUP7 SSTORE POP PUSH2 0xC6A JUMP JUMPDEST PUSH1 0x1F NOT DUP5 AND PUSH2 0xC19 DUP7 PUSH2 0xA06 JUMP JUMPDEST PUSH0 JUMPDEST DUP3 DUP2 LT ISZERO PUSH2 0xC40 JUMPI DUP5 DUP10 ADD MLOAD DUP3 SSTORE PUSH1 0x1 DUP3 ADD SWAP2 POP PUSH1 0x20 DUP6 ADD SWAP5 POP PUSH1 0x20 DUP2 ADD SWAP1 POP PUSH2 0xC1B JUMP JUMPDEST DUP7 DUP4 LT ISZERO PUSH2 0xC5D JUMPI DUP5 DUP10 ADD MLOAD PUSH2 0xC59 PUSH1 0x1F DUP10 AND DUP3 PUSH2 0xB6C JUMP JUMPDEST DUP4 SSTORE POP JUMPDEST PUSH1 0x1 PUSH1 0x2 DUP9 MUL ADD DUP9 SSTORE POP POP POP JUMPDEST POP POP POP POP POP POP JUMP JUMPDEST PUSH0 DUP2 SLOAD PUSH2 0xC7E DUP2 PUSH2 0x9D6 JUMP JUMPDEST PUSH2 0xC88 DUP2 DUP7 PUSH2 0x92C JUMP JUMPDEST SWAP5 POP PUSH1 0x1 DUP3 AND PUSH0 DUP2 EQ PUSH2 0xCA2 JUMPI PUSH1 0x1 DUP2 EQ PUSH2 0xCB7 JUMPI PUSH2 0xCE9 JUMP JUMPDEST PUSH1 0xFF NOT DUP4 AND DUP7 MSTORE DUP2 ISZERO ISZERO DUP3 MUL DUP7 ADD SWAP4 POP PUSH2 0xCE9 JUMP JUMPDEST PUSH2 0xCC0 DUP6 PUSH2 0xA06 JUMP JUMPDEST PUSH0 JUMPDEST DUP4 DUP2 LT ISZERO PUSH2 0xCE1 JUMPI DUP2 SLOAD DUP2 DUP10 ADD MSTORE PUSH1 0x1 DUP3 ADD SWAP2 POP PUSH1 0x20 DUP2 ADD SWAP1 POP PUSH2 0xCC2 JUMP JUMPDEST DUP4 DUP9 ADD SWAP6 POP POP POP JUMPDEST POP POP POP SWAP3 SWAP2 POP POP JUMP JUMPDEST PUSH0 PUSH2 0xCFD DUP3 DUP5 PUSH2 0xC72 JUMP JUMPDEST SWAP2 POP DUP2 SWAP1 POP SWAP3 SWAP2 POP POP JUMP INVALID LOG2 PUSH5 0x6970667358 0x22 SLT KECCAK256 CODESIZE SWAP6 0x2F SWAP12 0x2E 0xD8 ADD SLT 0xD8 MSTORE DUP9 0xBC MSTORE8 PUSH0 PUSH20 0x44DCDD1D680DF1258B640BEF902CB9F8E264736F PUSH13 0x63430008160033000000000000 "
		},
		"gasEstimates": {
			"creation": {
				"codeDepositCost": "678000",
				"executionCost": "706",
				"totalCost": "678706"
			},
			"external": {
				"getResultPlayer(string,string)": "infinite",
				"getResultTournament(string)": "infinite",
				"setResult(string,uint256,string)": "infinite"
			}
		},
		"methodIdentifiers": {
			"getResultPlayer(string,string)": "e74c9e09",
			"getResultTournament(string)": "60e98e40",
			"setResult(string,uint256,string)": "dace2e6a"
		}
	},
	"abi": [
		{
			"inputs": [
				{
					"internalType": "string",
					"name": "playerName",
					"type": "string"
				},
				{
					"internalType": "string",
					"name": "nameTournament",
					"type": "string"
				}
			],
			"name": "getResultPlayer",
			"outputs": [
				{
					"internalType": "uint256",
					"name": "",
					"type": "uint256"
				}
			],
			"stateMutability": "view",
			"type": "function"
		},
		{
			"inputs": [
				{
					"internalType": "string",
					"name": "nameTournament",
					"type": "string"
				}
			],
			"name": "getResultTournament",
			"outputs": [
				{
					"internalType": "string[]",
					"name": "",
					"type": "string[]"
				},
				{
					"internalType": "uint256[]",
					"name": "",
					"type": "uint256[]"
				}
			],
			"stateMutability": "view",
			"type": "function"
		},
		{
			"inputs": [
				{
					"internalType": "string",
					"name": "newPlayer",
					"type": "string"
				},
				{
					"internalType": "uint256",
					"name": "newResult",
					"type": "uint256"
				},
				{
					"internalType": "string",
					"name": "nameTournament",
					"type": "string"
				}
			],
			"name": "setResult",
			"outputs": [],
			"stateMutability": "nonpayable",
			"type": "function"
		}
	]
}